:100000000C9434000C9451000C9451000C94510049
:100010000C9451000C9451000C9451000C9451001C
:100020000C9451000C9451000C9451000C9451000C
:100030000C9451000C9451000C9451000C945100FC
:100040000C9451000C9451000C9451000C945100EC
:100050000C9451000C9451000C9451000C945100DC
:100060000C9451000C94510011241FBECFEFD8E026
:10007000DEBFCDBF11E0A0E0B1E0EEE9F5E102C0E6
:1000800005900D92A633B107D9F721E1A6E3B1E0BF
:1000900001C01D92A63BB207E1F70E9453000C94E9
:1000A000A90A0C940000CDB7DEB7C751D6400FB6F1
:1000B000F894DEBF0FBECDBF6AE070E0CE010196BE
:1000C0000E946809CE0101960E94C909CE010196DD
:1000D0000E94CF09FBCF0895089508950F931F93B1
:1000E000CF93DF9300D000D000D0CDB7DEB7DC01D6
:1000F000CB0109831A832B833C834D835E83FB01F1
:10010000408151814F3F510509F008F526E0249FB9
:10011000B001259F700D1124A60FB71FFE01319667
:1001200001900D922A95E1F7FC01208131812F5F2A
:100130003F4F3183208381E026960FB6F894DEBFCF
:100140000FBECDBFDF91CF911F910F91089580E039
:10015000F3CFCF93DF93FC01EB01DA018881998122
:10016000009799F001979983888326E0289FA00142
:10017000299F500D1124E40FF51F01900D922A952F
:10018000E1F781E0DF91CF91089580E0FBCF0F93FD
:100190001F93CF93DF9300D000D000D0CDB7DEB750
:1001A0008A01AE014F5F5F4F0E94A900882341F092
:1001B00029813A812130310571F49B81F8019083C6
:1001C00026960FB6F894DEBF0FBECDBFDF91CF915C
:1001D0001F910F91089580E0F3CFEF92FF920F935C
:1001E0001F93CF93DF93FC01C801E7010E5F1F4F00
:1001F0002F4F3F4F401751076207730770F0E80F0A
:10020000F91F918180819983888381E0DF91CF916B
:100210001F910F91FF90EF90089580E0F7CF2F92FC
:100220003F924F925F926F927F928F929F92AF9286
:10023000BF92CF92DF92EF92FF920F931F93CF93D3
:10024000DF93CDB7DEB7C052D6400FB6F894DEBF0D
:100250000FBECDBFC95ED94F8883C751D640C85E97
:10026000D94F9883C851D640C95ED94FE881F981EA
:10027000C751D640E05FF94F20803180211431040E
:1002800011F40C944C09C95ED94FE881F981C7512A
:10029000D640EE5EF94F408051806280738028E046
:1002A000421651046104710408F4F6C744E050E0BA
:1002B00060E071E0C1010E949C0A892B09F0ECC743
:1002C000D10114968D919C911597019709F0E4C77F
:1002D0001696ED91FC91C15ED94FF983E883CF5119
:1002E000D640FE01ED5EF94F1182108208E010E069
:1002F00020E030E0C75ED94F19821882C951D6403C
:10030000DE2ECF2EC75ED94FA881B981C951D64004
:10031000C15ED94FE881F981CF51D640AE17BF07F2
:1003200018F090E080E0BAC70415150526053705DA
:1003300008F05FC0F101E00FF11F4081CA5ED94FA4
:100340004883C651D640E42FE150E43208F051C052
:10035000F0E0DF01AB5FBE4F8C91882E912CB12C69
:10036000A12C882309F445C0800E911EA21EB31E45
:10037000481459046A047B04E0F1E555F54F0C94E8
:100380005A0ACC5FD94F188219821A82C450D640BB
:1003900051E0CF5FD94F5883C150D640CE5FD94F7F
:1003A0001882C250D640F101E00FF11F21E0818197
:1003B000811101C020E0CD5FD94F2883C350D640C2
:1003C000CF5FD94F0881C150D640CE5FD94F188139
:1003D000C250D64036C0D901C8010196A11DB11D39
:1003E0000B5F1F4F2F4F3F4F40165106620673069B
:1003F00018F482E090E052C7F101E80FF91F218163
:10040000828190E0B0E0A0E0DC0199278827922B60
:100410002081822B2381B22B02E0CF5FD94F08834A
:10042000C150D640CE5FD94F1882C250D640282F37
:10043000CD5FD94F88839983AA83BB83C350D640AD
:1004400010E0CC5FD94F3881C450D640CB5FD94F34
:100450004881C550D640CA5FD94F5881C650D64052
:100460006D2D7C2DCE0101960E946E0081114BC036
:10047000C0CFC95FD94F19821882C750D6400F5FCD
:100480001F4F2F4F3F4FBE01695F794F7B01B30173
:10049000A201C1010E94ED00882309F4AACFC95F1F
:1004A000D94F88819981C750D6408F3F910511F06F
:1004B00008F09FCFAE014F5F594F6D2D7C2DCE01BF
:1004C00001960E94A900882309F493CFC95FD94FF0
:1004D00088819981C750D64076E0789FD001799F76
:1004E000B00D1124C95ED94F88819981C751D6407A
:1004F000A80FB91F5096FE01EF5FF94F86E00190FB
:100500000D928A95E1F7C75ED94F88819981C951CB
:10051000D6400196C75ED94F99838883C951D6408A
:10052000B9C2C95FD94F19821882C750D640F101AC
:10053000E00FF11F9381CA5ED94F9883C651D64010
:100540000F5F1F4F2F4F3F4FDE01A95FB94F7D0156
:10055000B301A201C1010E94ED00882309F449CF33
:10056000C95FD94F28813981C750D6402F3F310507
:1005700011F008F03ECFB6E0B29FC001B39F900DDE
:100580001124C95ED94FE881F981C751D6408E0F39
:100590009F1FFC017096DE01AF5FB94F26E001900E
:1005A0000D922A95E1F7DC0150968D919C91009770
:1005B00099F5CA5ED94FB881C651D640B130C9F459
:1005C000CD5FD94F1882C350D64081E090E0082F0C
:1005D000CF5FD94F99838883C150D640CE5FD94F22
:1005E0001881C250D640CD5FD94F2881C350D64024
:1005F00028CFCA5ED94FE881C651D640E23009F013
:10060000F8CECD5FD94F188219821A821B82C3504F
:10061000D64082E090E0DBCFCA5ED94FF881C65168
:10062000D640F13031F0F23091F68230910579F216
:10063000E0CE8130910559F2DCCEAE01435F594FD7
:100640006D2D7C2DCE0101960E94A900882309F40E
:10065000D0CEAE01495F594F6D2D7C2DCE01019654
:100660000E94A900882309F4C4CEC75FD94F28810E
:10067000C950D640C95FD94F88819981C750D640AB
:10068000019709F0B6CEC15FD94F8881CF50D640CF
:10069000C35FD94F48815981CD50D6404130510573
:1006A00009F0A7CECC5FD94F188219821A82C450A4
:1006B000D640CF5FD94F59834883C150D640CA5ED8
:1006C000D94F3881C651D640353031F4211101C09F
:1006D00080E0282F21706FCE21116DCE282F6BCE98
:1006E000AE01435F594F6D2D7C2DCE0101960E94C6
:1006F000A900882309F47DCEAE01495F594F6D2DC5
:100700007C2DCE0101960E94A900882309F471CEA8
:10071000C75FD94F288139814A815B81C950D64052
:10072000C95FD94F88819981C750D640029709F097
:1007300060CEC15FD94FE880F9800A811B81CF501C
:10074000D640C35FD94F88819981CD50D64002975A
:1007500009F04FCECA5ED94F6881C651D6406D3080
:1007600031F4E114F1040105110509F442CE72E0FF
:10077000CF5FD94F7883C150D640CE5FD94F188212
:10078000C250D640CA5ED94F8881C651D640873004
:1007900069F42E0D3F1D401F511FCD5FD94F288397
:1007A00039834A835B83C350D6401FC0CA5ED94F8A
:1007B0009881C651D6409B3029F42E193F09400B31
:1007C000510BEBCFCA5ED94FA881C651D640AC3091
:1007D00091F4C801B7010E942B0ACD5FD94F6883FD
:1007E00079838A839B83C350D640CF5FD94F0881DA
:1007F000C150D640F3CECA01B901A80197010E94A9
:100800003B0ACBCFAE01435F594F6D2D7C2DCE01FE
:1008100001960E94A900882309F4EBCDAE01495F3F
:10082000594F6D2D7C2DCE0101960E94A900882381
:1008300009F4DFCDC95FD94F88819981C750D6406F
:10084000C35FD94F28813981CD50D6408217930795
:1008500009F0CFCD009709F4CCCD8130910579F422
:1008600021E0C75FD94F9881C950D640C15FD94FA9
:100870008881CF50D6409817D9F020E019C0029750
:1008800009F0B7CD21E0C75FD94F488159816A810E
:100890007B81C950D640C15FD94F88819981AA8197
:1008A000BB81CF50D640481759076A077B0729F705
:1008B000CC5FD94F188219821A82C450D640B1E059
:1008C000CF5FD94FB883C150D640CE5FD94F188281
:1008D000C250D640CA5ED94FE881C651D640E331F6
:1008E00009F469CD2B2767CDAE01435F594F6D2DBC
:1008F0007C2DCE0101960E94A900882309F479CDB0
:10090000AE01495F594F6D2D7C2DCE0101960E949D
:10091000A900882309F46DCDC75FD94F88819981DB
:10092000AA81BB81C950D640C95FD94F288139817E
:10093000C750D6402230310509F05BCDC15FD94F99
:10094000488159816A817B81CF50D640C35FD94F9E
:1009500028813981CD50D6402230310509F049CD6A
:10096000CA5ED94FF881C651D640F53141F421E035
:1009700084179507A607B7077CF020E00DC0CA5E74
:10098000D94F2881C651D6402631C9F421E04817F5
:1009900059076A077B078CF7CC5FD94F18821982F9
:1009A0001A82C450D64001E0CF5FD94F0883C150AE
:1009B000D640CE5FD94F1882C250D6403FC1CA5EE2
:1009C000D94F3881C651D64021E0373131F448172C
:1009D00059076A077B0704F7D0CF84179507A60746
:1009E000B707D4F6CACFC95FD94F19821882C7504A
:1009F000D6400F5F1F4F2F4F3F4FAE01495F594FFA
:100A00007A01B301A201C1010E94ED00882309F41B
:100A1000F0CCAE014F5F594F6D2D7C2DCE0101966C
:100A20000E94A900882309F4E4CCCD5FD94F8881C6
:100A3000C350D640CF5FD94F28813981C150D640AD
:100A40002130310509F0D5CC81115DCDC95FD94F79
:100A500028813981C750D640C15ED94F68817981DC
:100A6000CF51D6402617370708F0C3CCC75ED94F01
:100A700019821882C951D64098E0892E912CA12C58
:100A8000B12CC75ED94FA881B981C951D6402A1768
:100A90003B0719F49501840135CC84149504A60410
:100AA000B70408F0A6CCF101E80DF91DE081E15092
:100AB000E43208F09ECCF0E0EB5FFE4F8081482FDF
:100AC00050E070E060E0882309F493CC840E951E1A
:100AD000A61EB71E481459046A047B0408F489CC86
:100AE000C75ED94F88819981C951D6400196C75EAA
:100AF000D94F99838883C951D640C3CFCF5FD94F8F
:100B000019821882C150D6400F5F1F4F2F4F3F4FA1
:100B1000FE01EF5FF94F7F01B301A201C1010E9405
:100B2000ED00882309F465CCCF5FD94F2881398146
:100B3000C150D640C15ED94F48815981CF51D6406E
:100B40002417350708F055CCC75ED94F1982188293
:100B5000C951D64088E0882E912CA12CB12CC75EBB
:100B6000D94F88819981C951D6402817390709F48E
:100B700091CF84149504A604B70408F03ACCF1018F
:100B8000E80DF91DE081E150E43208F032CCF0E0EC
:100B9000EB5FFE4F8081482F50E070E060E08823DB
:100BA00009F427CC840E951EA61EB71E48145904BE
:100BB0006A047B0408F41DCCC75ED94F6881798133
:100BC000C951D6406F5F7F4FC75ED94F7983688325
:100BD000C951D640C4CFF101E00FF11F8281C95E37
:100BE000D94FA881B981C751D6402D913C91883009
:100BF00008F0FFCB4181B8E04B9FA0011124840F86
:100C0000952F911D8031910508F0F3CBCC5FD94F22
:100C1000188219821A82C450D64001E0CF5FD94FA2
:100C20000883C150D640CE5FD94F1882C250D640FB
:100C300002C0369527958A95E2F72170CD5FD94F8E
:100C40002883C350D64010E030E000CCAE014F5FA7
:100C5000594F6D2D7C2DCE0101960E94A90088234D
:100C600009F4C7CBCF5FD94F88819981C150D64055
:100C70008130910509F0BDCBF101E00FF11F228118
:100C8000283008F0B6CB4181E8E04E9FA001112446
:100C9000240F352F311D2031310508F0AACB02C0B9
:100CA000880F991F2A95E2F7C95ED94FA881B981AB
:100CB000C751D64012962D913C911397CD5FD94FD5
:100CC0004881C350D640442339F0822B932B13968E
:100CD0009C938E93129717CC8095909582239323A3
:100CE000C95ED94FE881F981C751D6409383828389
:100CF0000ACCF101E00FF11F8281C95ED94FA881B2
:100D0000B981C751D64012962D913C9170CFC95FE1
:100D1000D94F19821882C750D640C35FD94F188265
:100D2000CD50D6400F5F1F4F2F4F3F4FFE01E95F61
:100D3000F94F7F01B301A201C1010E94ED00882398
:100D400009F457CBAE014F5F594F6D2D7C2DCE016D
:100D500001960E94A900882309F44BCBCD5FD94F9F
:100D6000288139814A815B81C350D640C55ED94F05
:100D7000288339834A835B83CB51D640CF5FD94FD9
:100D800088819981C150D640029709F032CBAE01DB
:100D9000435F594F6D2D7C2DCE0101960E94C700F7
:100DA000882309F426CBC95ED94FE881F981C75160
:100DB000D640A481B581C35FD94F2881CD50D6409C
:100DC000C95FD94F88819981C750D640CA5ED94F33
:100DD000F881C651D640F03209F062C080389105E2
:100DE00008F007CB211117C027E0289FF001299FA9
:100DF000F00D1124EA5CF14F1182128213821482E9
:100E00001082B7E0B89FF001B99FF00D1124EA5CA1
:100E1000F14F2081C1CDC55ED94F488159816A818A
:100E20007B81CB51D64077FF03C040E050E0BA0150
:100E300037E0389FF001399FF00D1124EA5CF14F43
:100E40000181128123813481041715072607370792
:100E50006CF40A0F1B1F211D311D4017510762073B
:100E60007307CCF00183128323833483A7E0A89F08
:100E7000F001A99FF00D1124EA5CF14F21E0E1801F
:100E8000F28003811481E416F506060717070CF4B7
:100E900020E02083B6CF4183528363837483E6CFFF
:100EA000CA5ED94FE881C651D640E13209F063C02D
:100EB0008038910508F09DCA2223B9F027E0289FC9
:100EC000F001299FF00D1124EA54F54F31E03083F1
:100ED000118212821382148277E0789FF001799F49
:100EE000F00D1124EA54F54F94CF47E0489FF001EC
:100EF000499FF00D1124EA54F54F2081222361F31C
:100F0000C55ED94F088119812A813B81CB51D640DA
:100F100037FF03C000E010E0980157E0589FF00150
:100F2000599FF00D1124EA54F54F4181528163819C
:100F30007481401751076207730774F067E0689F78
:100F4000F001699FF00D1124EA54F54F10820183DE
:100F5000128323833483C0CF4A0F5B1F611D711D31
:100F60004183528363837483401751076207730779
:100F70000CF4B2CFE3CF8038910508F03ACA2223AF
:100F8000C1F037E0389FF001399FF00D1124EA5C81
:100F9000F84F358131110DC0C55ED94F4881598157
:100FA0006A817B81CB51D6401416150616061706AA
:100FB000ACF067E0689FF001699FF00D1124EA5CD6
:100FC000F84F3681311119C047E0489FF001499F21
:100FD000F00D1124EA5CF84F25831BCF47E0489FB2
:100FE000F001499FF00D1124EA5CF84F51E056835F
:100FF00050831182128213821482C55ED94F4881B8
:1010000059816A817B81CB51D64077FF03C040E094
:1010100050E0BA0137E0389FF001399FF00D1124FC
:10102000EA5CF84FE180F28003811481EA0EFB1E36
:10103000011D111DE182F28203831483E416F5067B
:10104000060717070CF216821082418352836383CE
:101050007483BACFC95FD94F19821882C750D6405E
:10106000CB5ED94F1882C551D640C35FD94F188285
:10107000CD50D6400F5F1F4F2F4F3F4FBE01695FCE
:10108000794F7B01B301A201C1010E94ED008823C9
:1010900009F4AFC9AE014F5F594F6D2D7C2DCE01C4
:1010A00001960E94A900882309F4A3C9CD5FD94FF6
:1010B000E880C350D640CC5FD94FF880C450D640AA
:1010C000CB5FD94F0881C550D640CA5FD94F188130
:1010D000C650D640CF5FD94F88819981C150D64044
:1010E000029709F086C9AE01435F594F6D2D7C2DE3
:1010F000CE0101960E94C700882309F47AC9AE0187
:101100004B5E594F6D2D7C2DCE0101960E94C7007C
:10111000882309F46EC9C35FD94F2881CD50D640CA
:10112000CB5ED94F3881C551D640C95FD94F888130
:101130009981C750D640CA5ED94F7881C651D640F2
:10114000733209F056C08038910508F052C9A701E2
:10115000B80177FF03C040E050E0BA01222361F0FC
:10116000A6E0A89FF001A99FF00D1124EA5CFB4FB7
:1011700011821282138214823323E9F0B6E0B89F01
:10118000F001B99FF00D1124EA5CFB4F258121117C
:1011900012C0E180F28003811481E416F50606078F
:1011A00017074CF42FEFE21AF20A0F4F1F4FE1829C
:1011B000F28203831483A6E0A89FF001A99FF00D9B
:1011C0001124EA5CFB4F21E0E180F280038114816D
:1011D000E416F506060717070CF420E0B6E0B89F02
:1011E000F001B99FF00D1124EA5CFB4F2083358399
:1011F000D3CB8038910508F0FCC8222399F026E073
:10120000289FF001299FF00D1124EA5CFE4FA701F1
:10121000B80177FF03C040E050E0BA014183528338
:10122000638374833323E1F046E0489FF001499FD4
:10123000F00D1124EA5CFE4F2581211111C041817E
:10124000528163817481141615061606170644F43C
:101250004150510961097109418352836383748349
:1012600056E0589FF001599FF00D1124EA5CFE4FA3
:1012700021E041815281638174811416150616069E
:1012800017060CF420E066E0689FF001699FF00DFE
:101290001124EA5CFE4FAACF81E090E0C05ED94FF6
:1012A0000FB6F894DEBF0FBECDBFDF91CF911F9177
:1012B0000F91FF90EF90DF90CF90BF90AF909F90F5
:1012C0008F907F906F905F904F903F902F900895F8
:1012D0000F931F93CF93DF93EC018B011982188238
:1012E0001B821A82FC01EA5EF94F108236978DE26A
:1012F00091E09183808332968091290190912A0117
:10130000A0912B01B0912C0180839183A283B383A0
:10131000E250F64080E096E0DF019C011D922150F2
:101320003040E1F780E893E0E6E3FEE0DF019C0176
:101330001D9221503040E1F7E6EBFAE0DF019C011D
:101340001D9221503040E1F7E6E3F7E0DF019C0118
:101350001D9221503040E1F780E093E0E6E3F4E0B5
:10136000DF019C011D9221503040E1F7E6E3F1E0FE
:10137000DF019C011D9221503040E1F70E946B007B
:10138000B801CE010496DF91CF911F910F910C947B
:10139000FF09FC01EA5EF94F81E0808308950F9315
:1013A0001F93CF93DF93EC01FC01EA5EF94F80813C
:1013B000882301F1CE010E946C00CE010E940F0132
:1013C000BC018E010C5F1F4F892B39F0C801DF91E2
:1013D000CF911F910F910C941A0ACE010E946D00BB
:1013E000C8010E940D0AC801DF91CF911F910F9192
:1013F0000C941E0ADF91CF911F910F910895FC016B
:10140000718360831282138214821582168217827E
:1014100010861186138612860895FC0182819381BD
:10142000A481B5810196A11DB11D82839383A483FC
:10143000B5830895FC01738762870895FC01868156
:101440009781A085B1850196A11DB11D86839783E3
:10145000A087B1870895DB018F939F930E94600A54
:10146000BF91AF91A29F800D911DA39F900DB29F40
:10147000900D11240895052E97FB1EF400940E94F0
:10148000520A57FD07D00E946B0A07FC03D04EF4A6
:101490000C94520A50954095309521953F4F4F4FEF
:1014A0005F4F089590958095709561957F4F8F4F10
:1014B0009F4F0895EE0FFF1F0590F491E02D0994C2
:1014C0000E948D0AA59F900DB49F900DA49F800D42
:1014D000911D11240895A1E21A2EAA1BBB1BFD0128
:1014E0000DC0AA1FBB1FEE1FFF1FA217B307E40703
:1014F000F50720F0A21BB30BE40BF50B661F771F5B
:10150000881F991F1A9469F760957095809590953A
:101510009B01AC01BD01CF010895A29FB001B39F13
:10152000C001A39F700D811D1124911DB29F700DEC
:10153000811D1124911D0895FB01DC0104C08D91D2
:101540000190801921F441505040C8F7881B990B35
:101550000895F894FFCFC101EB01390291021D03F8
:101560001D0370039101F3047E0570037003700383
:10157000F901F901EB052606790602040204740458
:10158000740474047404F901F901F901F901F90111
:0E159000F901F9018706870687062A082A084E
:10159E00504C434200020503040101010103030103
:1015AE00010100000303030101010101010000001C
:1015BE0000000000030303030309000000504C4326
:0615CE00420100010008CB
:00000001FF
